{
  "_format": "hh-sol-artifact-1",
  "contractName": "MinhaPrimeiraCriptomoeda",
  "sourceName": "contracts/MinhaPrimeiraCriptomoeda.sol",
  "abi": [
    {
      "inputs": [
        {
          "internalType": "uint256",
          "name": "_initialSupply",
          "type": "uint256"
        }
      ],
      "stateMutability": "nonpayable",
      "type": "constructor"
    },
    {
      "anonymous": false,
      "inputs": [
        {
          "indexed": true,
          "internalType": "address",
          "name": "owner",
          "type": "address"
        },
        {
          "indexed": true,
          "internalType": "address",
          "name": "spender",
          "type": "address"
        },
        {
          "indexed": false,
          "internalType": "uint256",
          "name": "value",
          "type": "uint256"
        }
      ],
      "name": "Approval",
      "type": "event"
    },
    {
      "anonymous": false,
      "inputs": [
        {
          "indexed": true,
          "internalType": "address",
          "name": "from",
          "type": "address"
        },
        {
          "indexed": true,
          "internalType": "address",
          "name": "to",
          "type": "address"
        },
        {
          "indexed": false,
          "internalType": "uint256",
          "name": "value",
          "type": "uint256"
        }
      ],
      "name": "Transfer",
      "type": "event"
    },
    {
      "inputs": [
        {
          "internalType": "address",
          "name": "",
          "type": "address"
        },
        {
          "internalType": "address",
          "name": "",
          "type": "address"
        }
      ],
      "name": "allowance",
      "outputs": [
        {
          "internalType": "uint256",
          "name": "",
          "type": "uint256"
        }
      ],
      "stateMutability": "view",
      "type": "function"
    },
    {
      "inputs": [
        {
          "internalType": "address",
          "name": "_spender",
          "type": "address"
        },
        {
          "internalType": "uint256",
          "name": "_value",
          "type": "uint256"
        }
      ],
      "name": "approve",
      "outputs": [
        {
          "internalType": "bool",
          "name": "success",
          "type": "bool"
        }
      ],
      "stateMutability": "nonpayable",
      "type": "function"
    },
    {
      "inputs": [
        {
          "internalType": "address",
          "name": "",
          "type": "address"
        }
      ],
      "name": "balanceOf",
      "outputs": [
        {
          "internalType": "uint256",
          "name": "",
          "type": "uint256"
        }
      ],
      "stateMutability": "view",
      "type": "function"
    },
    {
      "inputs": [],
      "name": "decimals",
      "outputs": [
        {
          "internalType": "uint8",
          "name": "",
          "type": "uint8"
        }
      ],
      "stateMutability": "view",
      "type": "function"
    },
    {
      "inputs": [],
      "name": "name",
      "outputs": [
        {
          "internalType": "string",
          "name": "",
          "type": "string"
        }
      ],
      "stateMutability": "view",
      "type": "function"
    },
    {
      "inputs": [],
      "name": "symbol",
      "outputs": [
        {
          "internalType": "string",
          "name": "",
          "type": "string"
        }
      ],
      "stateMutability": "view",
      "type": "function"
    },
    {
      "inputs": [],
      "name": "totalSupply",
      "outputs": [
        {
          "internalType": "uint256",
          "name": "",
          "type": "uint256"
        }
      ],
      "stateMutability": "view",
      "type": "function"
    },
    {
      "inputs": [
        {
          "internalType": "address",
          "name": "_to",
          "type": "address"
        },
        {
          "internalType": "uint256",
          "name": "_value",
          "type": "uint256"
        }
      ],
      "name": "transfer",
      "outputs": [
        {
          "internalType": "bool",
          "name": "success",
          "type": "bool"
        }
      ],
      "stateMutability": "nonpayable",
      "type": "function"
    }
  ],
  "bytecode": "0x60806040526040518060400160405280601881526020017f4d696e68615072696d6569726143726970746f6d6f65646100000000000000008152506000908051906020019062000051929190620001da565b506040518060400160405280600381526020017f4d50430000000000000000000000000000000000000000000000000000000000815250600190805190602001906200009f929190620001da565b506012600260006101000a81548160ff021916908360ff160217905550348015620000c957600080fd5b5060405162000fc838038062000fc88339818101604052810190620000ef9190620002a1565b600260009054906101000a900460ff1660ff16600a62000110919062000356565b816200011d919062000493565b600381905550600354600460003373ffffffffffffffffffffffffffffffffffffffff1673ffffffffffffffffffffffffffffffffffffffff168152602001908152602001600020819055503373ffffffffffffffffffffffffffffffffffffffff16600073ffffffffffffffffffffffffffffffffffffffff167fddf252ad1be2c89b69c2b068fc378daa952ba7f163c4a11628f55a4df523b3ef600354604051620001cb9190620002de565b60405180910390a350620005b9565b828054620001e890620004fe565b90600052602060002090601f0160209004810192826200020c576000855562000258565b82601f106200022757805160ff191683800117855562000258565b8280016001018555821562000258579182015b82811115620002575782518255916020019190600101906200023a565b5b5090506200026791906200026b565b5090565b5b80821115620002865760008160009055506001016200026c565b5090565b6000815190506200029b816200059f565b92915050565b600060208284031215620002b457600080fd5b6000620002c4848285016200028a565b91505092915050565b620002d881620004f4565b82525050565b6000602082019050620002f56000830184620002cd565b92915050565b6000808291508390505b60018511156200034d5780860481111562000325576200032462000534565b5b6001851615620003355780820291505b8081029050620003458562000592565b945062000305565b94509492505050565b60006200036382620004f4565b91506200037083620004f4565b92506200039f7fffffffffffffffffffffffffffffffffffffffffffffffffffffffffffffffff8484620003a7565b905092915050565b600082620003b957600190506200048c565b81620003c957600090506200048c565b8160018114620003e25760028114620003ed5762000423565b60019150506200048c565b60ff84111562000402576200040162000534565b5b8360020a9150848211156200041c576200041b62000534565b5b506200048c565b5060208310610133831016604e8410600b84101617156200045d5782820a90508381111562000457576200045662000534565b5b6200048c565b6200046c8484846001620002fb565b9250905081840481111562000486576200048562000534565b5b81810290505b9392505050565b6000620004a082620004f4565b9150620004ad83620004f4565b9250817fffffffffffffffffffffffffffffffffffffffffffffffffffffffffffffffff0483118215151615620004e957620004e862000534565b5b828202905092915050565b6000819050919050565b600060028204905060018216806200051757607f821691505b602082108114156200052e576200052d62000563565b5b50919050565b7f4e487b7100000000000000000000000000000000000000000000000000000000600052601160045260246000fd5b7f4e487b7100000000000000000000000000000000000000000000000000000000600052602260045260246000fd5b60008160011c9050919050565b620005aa81620004f4565b8114620005b657600080fd5b50565b6109ff80620005c96000396000f3fe608060405234801561001057600080fd5b50600436106100885760003560e01c806370a082311161005b57806370a082311461011757806395d89b4114610147578063a9059cbb14610165578063dd62ed3e1461019557610088565b806306fdde031461008d578063095ea7b3146100ab57806318160ddd146100db578063313ce567146100f9575b600080fd5b6100956101c5565b6040516100a29190610754565b60405180910390f35b6100c560048036038101906100c09190610657565b610253565b6040516100d29190610739565b60405180910390f35b6100e3610345565b6040516100f09190610796565b60405180910390f35b61010161034b565b60405161010e91906107b1565b60405180910390f35b610131600480360381019061012c91906105f2565b61035e565b60405161013e9190610796565b60405180910390f35b61014f610376565b60405161015c9190610754565b60405180910390f35b61017f600480360381019061017a9190610657565b610404565b60405161018c9190610739565b60405180910390f35b6101af60048036038101906101aa919061061b565b6105a3565b6040516101bc9190610796565b60405180910390f35b600080546101d2906108fa565b80601f01602080910402602001604051908101604052809291908181526020018280546101fe906108fa565b801561024b5780601f106102205761010080835404028352916020019161024b565b820191906000526020600020905b81548152906001019060200180831161022e57829003601f168201915b505050505081565b600081600560003373ffffffffffffffffffffffffffffffffffffffff1673ffffffffffffffffffffffffffffffffffffffff16815260200190815260200160002060008573ffffffffffffffffffffffffffffffffffffffff1673ffffffffffffffffffffffffffffffffffffffff168152602001908152602001600020819055508273ffffffffffffffffffffffffffffffffffffffff163373ffffffffffffffffffffffffffffffffffffffff167f8c5be1e5ebec7d5bd14f71427d1e84f3dd0314c0f7b2291e5b200ac8c7c3b925846040516103339190610796565b60405180910390a36001905092915050565b60035481565b600260009054906101000a900460ff1681565b60046020528060005260406000206000915090505481565b60018054610383906108fa565b80601f01602080910402602001604051908101604052809291908181526020018280546103af906108fa565b80156103fc5780601f106103d1576101008083540402835291602001916103fc565b820191906000526020600020905b8154815290600101906020018083116103df57829003601f168201915b505050505081565b600081600460003373ffffffffffffffffffffffffffffffffffffffff1673ffffffffffffffffffffffffffffffffffffffff168152602001908152602001600020541015610488576040517f08c379a000000000000000000000000000000000000000000000000000000000815260040161047f90610776565b60405180910390fd5b81600460003373ffffffffffffffffffffffffffffffffffffffff1673ffffffffffffffffffffffffffffffffffffffff16815260200190815260200160002060008282546104d7919061083e565b9250508190555081600460008573ffffffffffffffffffffffffffffffffffffffff1673ffffffffffffffffffffffffffffffffffffffff168152602001908152602001600020600082825461052d91906107e8565b925050819055508273ffffffffffffffffffffffffffffffffffffffff163373ffffffffffffffffffffffffffffffffffffffff167fddf252ad1be2c89b69c2b068fc378daa952ba7f163c4a11628f55a4df523b3ef846040516105919190610796565b60405180910390a36001905092915050565b6005602052816000526040600020602052806000526040600020600091509150505481565b6000813590506105d78161099b565b92915050565b6000813590506105ec816109b2565b92915050565b60006020828403121561060457600080fd5b6000610612848285016105c8565b91505092915050565b6000806040838503121561062e57600080fd5b600061063c858286016105c8565b925050602061064d858286016105c8565b9150509250929050565b6000806040838503121561066a57600080fd5b6000610678858286016105c8565b9250506020610689858286016105dd565b9150509250929050565b61069c81610884565b82525050565b60006106ad826107cc565b6106b781856107d7565b93506106c78185602086016108c7565b6106d08161098a565b840191505092915050565b60006106e86012836107d7565b91507f53616c646f20696e737566696369656e746500000000000000000000000000006000830152602082019050919050565b610724816108b0565b82525050565b610733816108ba565b82525050565b600060208201905061074e6000830184610693565b92915050565b6000602082019050818103600083015261076e81846106a2565b905092915050565b6000602082019050818103600083015261078f816106db565b9050919050565b60006020820190506107ab600083018461071b565b92915050565b60006020820190506107c6600083018461072a565b92915050565b600081519050919050565b600082825260208201905092915050565b60006107f3826108b0565b91506107fe836108b0565b9250827fffffffffffffffffffffffffffffffffffffffffffffffffffffffffffffffff038211156108335761083261092c565b5b828201905092915050565b6000610849826108b0565b9150610854836108b0565b9250828210156108675761086661092c565b5b828203905092915050565b600061087d82610890565b9050919050565b60008115159050919050565b600073ffffffffffffffffffffffffffffffffffffffff82169050919050565b6000819050919050565b600060ff82169050919050565b60005b838110156108e55780820151818401526020810190506108ca565b838111156108f4576000848401525b50505050565b6000600282049050600182168061091257607f821691505b602082108114156109265761092561095b565b5b50919050565b7f4e487b7100000000000000000000000000000000000000000000000000000000600052601160045260246000fd5b7f4e487b7100000000000000000000000000000000000000000000000000000000600052602260045260246000fd5b6000601f19601f8301169050919050565b6109a481610872565b81146109af57600080fd5b50565b6109bb816108b0565b81146109c657600080fd5b5056fea264697066735822122088f609a05e4f25fa54a9d595795953b304ef456d7e4abffbfcf6b139cfadb90f64736f6c63430008000033",
  "linkReferences": {},
  "deployedLinkReferences": {}
}